{
  "contractName": "UniversityCredentials",
  "abi": [
    {
      "inputs": [],
      "stateMutability": "nonpayable",
      "type": "constructor"
    },
    {
      "anonymous": false,
      "inputs": [
        {
          "indexed": true,
          "internalType": "address",
          "name": "to",
          "type": "address"
        },
        {
          "indexed": true,
          "internalType": "uint256",
          "name": "tokenId",
          "type": "uint256"
        }
      ],
      "name": "CredentialIssued",
      "type": "event"
    },
    {
      "inputs": [
        {
          "internalType": "uint256",
          "name": "",
          "type": "uint256"
        }
      ],
      "name": "ownerOf",
      "outputs": [
        {
          "internalType": "address",
          "name": "",
          "type": "address"
        }
      ],
      "stateMutability": "view",
      "type": "function",
      "constant": true
    },
    {
      "inputs": [
        {
          "internalType": "uint256",
          "name": "",
          "type": "uint256"
        }
      ],
      "name": "tokenURI",
      "outputs": [
        {
          "internalType": "string",
          "name": "",
          "type": "string"
        }
      ],
      "stateMutability": "view",
      "type": "function",
      "constant": true
    },
    {
      "inputs": [],
      "name": "universityAdmin",
      "outputs": [
        {
          "internalType": "address",
          "name": "",
          "type": "address"
        }
      ],
      "stateMutability": "view",
      "type": "function",
      "constant": true
    },
    {
      "inputs": [
        {
          "internalType": "address",
          "name": "student",
          "type": "address"
        },
        {
          "internalType": "string",
          "name": "credentialUrl",
          "type": "string"
        }
      ],
      "name": "issueCredential",
      "outputs": [
        {
          "internalType": "uint256",
          "name": "",
          "type": "uint256"
        }
      ],
      "stateMutability": "nonpayable",
      "type": "function"
    }
  ],
  "bytecode": "0x608060405234801561000f575f80fd5b50335f806101000a81548173ffffffffffffffffffffffffffffffffffffffff021916908373ffffffffffffffffffffffffffffffffffffffff160217905550610a9c8061005c5f395ff3fe608060405234801561000f575f80fd5b506004361061004a575f3560e01c80636352211e1461004e57806390c7c49c1461007e578063c87b56dd146100ae578063e0929111146100de575b5f80fd5b61006860048036038101906100639190610396565b6100fc565b6040516100759190610400565b60405180910390f35b6100986004803603810190610093919061057f565b61012c565b6040516100a591906105e8565b60405180910390f35b6100c860048036038101906100c39190610396565b610294565b6040516100d5919061067b565b60405180910390f35b6100e661032f565b6040516100f39190610400565b60405180910390f35b6002602052805f5260405f205f915054906101000a900473ffffffffffffffffffffffffffffffffffffffff1681565b5f805f9054906101000a900473ffffffffffffffffffffffffffffffffffffffff1673ffffffffffffffffffffffffffffffffffffffff163373ffffffffffffffffffffffffffffffffffffffff16146101bb576040517f08c379a00000000000000000000000000000000000000000000000000000000081526004016101b29061070b565b60405180910390fd5b60015f8154809291906101cd90610756565b91905055505f60015490508360025f8381526020019081526020015f205f6101000a81548173ffffffffffffffffffffffffffffffffffffffff021916908373ffffffffffffffffffffffffffffffffffffffff1602179055508260035f8381526020019081526020015f2090816102459190610997565b50808473ffffffffffffffffffffffffffffffffffffffff167f8a327f325a39d61d07dfd7326f422a96771beb439f36a3d8a3cd3adea50476db60405160405180910390a38091505092915050565b6003602052805f5260405f205f9150905080546102b0906107ca565b80601f01602080910402602001604051908101604052809291908181526020018280546102dc906107ca565b80156103275780601f106102fe57610100808354040283529160200191610327565b820191905f5260205f20905b81548152906001019060200180831161030a57829003601f168201915b505050505081565b5f8054906101000a900473ffffffffffffffffffffffffffffffffffffffff1681565b5f604051905090565b5f80fd5b5f80fd5b5f819050919050565b61037581610363565b811461037f575f80fd5b50565b5f813590506103908161036c565b92915050565b5f602082840312156103ab576103aa61035b565b5b5f6103b884828501610382565b91505092915050565b5f73ffffffffffffffffffffffffffffffffffffffff82169050919050565b5f6103ea826103c1565b9050919050565b6103fa816103e0565b82525050565b5f6020820190506104135f8301846103f1565b92915050565b610422816103e0565b811461042c575f80fd5b50565b5f8135905061043d81610419565b92915050565b5f80fd5b5f80fd5b5f601f19601f8301169050919050565b7f4e487b71000000000000000000000000000000000000000000000000000000005f52604160045260245ffd5b6104918261044b565b810181811067ffffffffffffffff821117156104b0576104af61045b565b5b80604052505050565b5f6104c2610352565b90506104ce8282610488565b919050565b5f67ffffffffffffffff8211156104ed576104ec61045b565b5b6104f68261044b565b9050602081019050919050565b828183375f83830152505050565b5f61052361051e846104d3565b6104b9565b90508281526020810184848401111561053f5761053e610447565b5b61054a848285610503565b509392505050565b5f82601f83011261056657610565610443565b5b8135610576848260208601610511565b91505092915050565b5f80604083850312156105955761059461035b565b5b5f6105a28582860161042f565b925050602083013567ffffffffffffffff8111156105c3576105c261035f565b5b6105cf85828601610552565b9150509250929050565b6105e281610363565b82525050565b5f6020820190506105fb5f8301846105d9565b92915050565b5f81519050919050565b5f82825260208201905092915050565b5f5b8381101561063857808201518184015260208101905061061d565b5f8484015250505050565b5f61064d82610601565b610657818561060b565b935061066781856020860161061b565b6106708161044b565b840191505092915050565b5f6020820190508181035f8301526106938184610643565b905092915050565b7f4f6e6c792074686520756e69766572736974792061646d696e2063616e2069735f8201527f7375652063726564656e7469616c732e00000000000000000000000000000000602082015250565b5f6106f560308361060b565b91506107008261069b565b604082019050919050565b5f6020820190508181035f830152610722816106e9565b9050919050565b7f4e487b71000000000000000000000000000000000000000000000000000000005f52601160045260245ffd5b5f61076082610363565b91507fffffffffffffffffffffffffffffffffffffffffffffffffffffffffffffffff820361079257610791610729565b5b600182019050919050565b7f4e487b71000000000000000000000000000000000000000000000000000000005f52602260045260245ffd5b5f60028204905060018216806107e157607f821691505b6020821081036107f4576107f361079d565b5b50919050565b5f819050815f5260205f209050919050565b5f6020601f8301049050919050565b5f82821b905092915050565b5f600883026108567fffffffffffffffffffffffffffffffffffffffffffffffffffffffffffffffff8261081b565b610860868361081b565b95508019841693508086168417925050509392505050565b5f819050919050565b5f61089b61089661089184610363565b610878565b610363565b9050919050565b5f819050919050565b6108b483610881565b6108c86108c0826108a2565b848454610827565b825550505050565b5f90565b6108dc6108d0565b6108e78184846108ab565b505050565b5b8181101561090a576108ff5f826108d4565b6001810190506108ed565b5050565b601f82111561094f57610920816107fa565b6109298461080c565b81016020851015610938578190505b61094c6109448561080c565b8301826108ec565b50505b505050565b5f82821c905092915050565b5f61096f5f1984600802610954565b1980831691505092915050565b5f6109878383610960565b9150826002028217905092915050565b6109a082610601565b67ffffffffffffffff8111156109b9576109b861045b565b5b6109c382546107ca565b6109ce82828561090e565b5f60209050601f8311600181146109ff575f84156109ed578287015190505b6109f7858261097c565b865550610a5e565b601f198416610a0d866107fa565b5f5b82811015610a3457848901518255600182019150602085019450602081019050610a0f565b86831015610a515784890151610a4d601f891682610960565b8355505b6001600288020188555050505b50505050505056fea26469706673582212206307f10fce6d73acf7e9789852c6981077b4a9abd0f22b90e2f9b36906ffd7c464736f6c63430008150033",
  "immutableReferences": {},
  "source": "// SPDX-License-Identifier: MIT\r\npragma solidity ^0.8.20;\r\n\r\ncontract UniversityCredentials {\r\n    address public universityAdmin;\r\n    uint256 private _tokenIds;\r\n\r\n    // Maps a credential ID to the student's address (the owner)\r\n    mapping(uint256 => address) public ownerOf;\r\n    // Maps a credential ID to its metadata URL (from Firebase Storage)\r\n    mapping(uint256 => string) public tokenURI;\r\n\r\n    event CredentialIssued(address indexed to, uint256 indexed tokenId);\r\n\r\n    constructor() {\r\n        universityAdmin = msg.sender;\r\n    }\r\n\r\n    function issueCredential(address student, string memory credentialUrl) public returns (uint256) {\r\n        require(msg.sender == universityAdmin, \"Only the university admin can issue credentials.\");\r\n        \r\n        _tokenIds++;\r\n        uint256 newItemId = _tokenIds;\r\n\r\n        ownerOf[newItemId] = student;\r\n        tokenURI[newItemId] = credentialUrl;\r\n\r\n        emit CredentialIssued(student, newItemId);\r\n        return newItemId;\r\n    }\r\n}",
  "sourcePath": "C:\\Users\\visha\\OneDrive\\Nirma\\SEM 3\\Blockchain\\University blockain credentials walllet\\contracts\\UniversityCredentials.sol",
  "compiler": {
    "name": "solc",
    "version": "0.8.21+commit.d9974bed.Emscripten.clang"
  },
  "schemaVersion": "3.4.16",
  "updatedAt": "2025-07-20T13:37:14.070Z",
  "networkType": "ethereum",
  "devdoc": {
    "kind": "dev",
    "methods": {},
    "version": 1
  },
  "userdoc": {
    "kind": "user",
    "methods": {},
    "version": 1
  }
}